{"abi":[{"type":"function","name":"verify_secp256r1","inputs":[{"name":"","type":"bytes32","internalType":"bytes32"},{"name":"","type":"bytes","internalType":"bytes"},{"name":"","type":"bytes","internalType":"bytes"}],"outputs":[{"name":"","type":"bool","internalType":"bool"}],"stateMutability":"pure"}],"bytecode":{"object":"0x608080604052346100155760d7908161001a8239f35b5f80fdfe60808060405260043610156011575f80fd5b5f3560e01c633def7565146023575f80fd5b34607257606036600319011260725767ffffffffffffffff9060243582811160725760519036906004016076565b5050604435918211607257606a60209236906004016076565b505060018152f35b5f80fd5b9181601f8401121560725782359167ffffffffffffffff83116072576020838186019501011160725756fea26469706673582212203e113c33bcaefd6709900b9aa4e55c8a2b303f4cf06c8eb462291e6a9ea1de3d64736f6c63430008180033","linkReferences":{}},"methodIdentifiers":{"verify_secp256r1(bytes32,bytes,bytes)":"3def7565"},"id":27}