{"abi":[{"type":"function","name":"verify_secp256r1","inputs":[{"name":"message_hash","type":"bytes32","internalType":"bytes32"},{"name":"signature","type":"bytes","internalType":"bytes"},{"name":"public_key","type":"bytes","internalType":"bytes"}],"outputs":[{"name":"","type":"bool","internalType":"bool"}],"stateMutability":"view"}],"bytecode":{"object":"0x60808060405234610016576101f0908161001b8239f35b5f80fdfe60806040526004361015610011575f80fd5b5f3560e01c633def756514610024575f80fd5b3461008c57606036600319011261008c5767ffffffffffffffff60243581811161008c57610056903690600401610090565b60449291923591821161008c57602092610077610082933690600401610090565b9290916004356100be565b6040519015158152f35b5f80fd5b9181601f8401121561008c5782359167ffffffffffffffff831161008c576020838186019501011161008c57565b919360408095036101b15784036101a95760208093818651938185019586528035888601520135606084015280356080840152013560a082015260a0815260c0810167ffffffffffffffff928282108483111761018b575f928392875251906101005afa903d1561019f573d9080821161018b57845194601f8301601f19908116603f011686019182118683101761018b575283523d5f8385013e5b158015610180575b61017a57808280518101031261008c57015160011490565b50505f90565b508082511415610162565b634e487b7160e01b5f52604160045260245ffd5b506060925061015a565b505050505f90565b50505050505f9056fea26469706673582212201e4c200558e6e0621b68c26f6fbfeaa014ba5268d2aaf9d50a56083d907aa7a564736f6c63430008180033","linkReferences":{}},"methodIdentifiers":{"verify_secp256r1(bytes32,bytes,bytes)":"3def7565"},"id":27}