{"abi":[{"type":"constructor","inputs":[{"name":"_storage","type":"address","internalType":"address"},{"name":"_verifier","type":"address","internalType":"address"}],"stateMutability":"nonpayable"},{"type":"function","name":"authorize_press","inputs":[{"name":"policy_address","type":"bytes32","internalType":"bytes32"},{"name":"press_address","type":"bytes32","internalType":"bytes32"},{"name":"press_pubkey","type":"bytes","internalType":"bytes"},{"name":"mldsa44_key_hash","type":"bytes32","internalType":"bytes32"},{"name":"payload_hash","type":"bytes32","internalType":"bytes32"},{"name":"nonce_key","type":"bytes32","internalType":"bytes32"},{"name":"payload_version","type":"uint32","internalType":"uint32"},{"name":"governance_sigs","type":"bytes[]","internalType":"bytes[]"}],"outputs":[],"stateMutability":"nonpayable"},{"type":"function","name":"batch_update_card_heads","inputs":[{"name":"policy_address","type":"bytes32","internalType":"bytes32"},{"name":"press_address","type":"bytes32","internalType":"bytes32"},{"name":"card_addresses","type":"bytes32[]","internalType":"bytes32[]"},{"name":"prev_log_cids","type":"bytes[]","internalType":"bytes[]"},{"name":"new_log_cids","type":"bytes[]","internalType":"bytes[]"},{"name":"payload_hash","type":"bytes32","internalType":"bytes32"},{"name":"press_signature","type":"bytes","internalType":"bytes"},{"name":"expected_sequence","type":"uint64","internalType":"uint64"}],"outputs":[],"stateMutability":"nonpayable"},{"type":"function","name":"cancel_logic_upgrade","inputs":[{"name":"payload_hash","type":"bytes32","internalType":"bytes32"},{"name":"nonce_key","type":"bytes32","internalType":"bytes32"},{"name":"payload_version","type":"uint32","internalType":"uint32"},{"name":"governance_sigs","type":"bytes[]","internalType":"bytes[]"}],"outputs":[],"stateMutability":"nonpayable"},{"type":"function","name":"claim_open_offer","inputs":[{"name":"offer_id","type":"bytes32","internalType":"bytes32"},{"name":"max_acceptances","type":"uint64","internalType":"uint64"},{"name":"expires_at","type":"uint64","internalType":"uint64"},{"name":"card_address","type":"bytes32","internalType":"bytes32"},{"name":"initial_log_cid","type":"bytes","internalType":"bytes"},{"name":"policy_address","type":"bytes32","internalType":"bytes32"},{"name":"press_address","type":"bytes32","internalType":"bytes32"},{"name":"payload_hash","type":"bytes32","internalType":"bytes32"},{"name":"press_signature","type":"bytes","internalType":"bytes"},{"name":"expected_sequence","type":"uint64","internalType":"uint64"}],"outputs":[],"stateMutability":"nonpayable"},{"type":"function","name":"confirm_logic_upgrade","inputs":[{"name":"proposed_logic_address","type":"address","internalType":"address"},{"name":"payload_hash","type":"bytes32","internalType":"bytes32"},{"name":"nonce_key","type":"bytes32","internalType":"bytes32"},{"name":"payload_version","type":"uint32","internalType":"uint32"},{"name":"governance_sigs","type":"bytes[]","internalType":"bytes[]"}],"outputs":[],"stateMutability":"nonpayable"},{"type":"function","name":"deregister_sub_card","inputs":[{"name":"sub_card_address","type":"bytes32","internalType":"bytes32"},{"name":"press_address","type":"bytes32","internalType":"bytes32"},{"name":"payload_hash","type":"bytes32","internalType":"bytes32"},{"name":"press_signature","type":"bytes","internalType":"bytes"},{"name":"expected_sequence","type":"uint64","internalType":"uint64"}],"outputs":[],"stateMutability":"nonpayable"},{"type":"function","name":"pendingVerifierAddress","inputs":[],"outputs":[{"name":"","type":"address","internalType":"address"}],"stateMutability":"view"},{"type":"function","name":"pendingVerifierAt","inputs":[],"outputs":[{"name":"","type":"uint64","internalType":"uint64"}],"stateMutability":"view"},{"type":"function","name":"pendingVerifierGovVersion","inputs":[],"outputs":[{"name":"","type":"uint32","internalType":"uint32"}],"stateMutability":"view"},{"type":"function","name":"pendingVerifierNonce","inputs":[],"outputs":[{"name":"","type":"bytes32","internalType":"bytes32"}],"stateMutability":"view"},{"type":"function","name":"propose_logic_upgrade","inputs":[{"name":"new_logic_address","type":"address","internalType":"address"},{"name":"payload_hash","type":"bytes32","internalType":"bytes32"},{"name":"nonce_key","type":"bytes32","internalType":"bytes32"},{"name":"payload_version","type":"uint32","internalType":"uint32"},{"name":"governance_sigs","type":"bytes[]","internalType":"bytes[]"}],"outputs":[],"stateMutability":"nonpayable"},{"type":"function","name":"register_address_forward","inputs":[{"name":"old_address","type":"bytes32","internalType":"bytes32"},{"name":"new_address","type":"bytes32","internalType":"bytes32"},{"name":"press_address","type":"bytes32","internalType":"bytes32"},{"name":"payload_hash","type":"bytes32","internalType":"bytes32"},{"name":"secp256r1_sig","type":"bytes","internalType":"bytes"}],"outputs":[],"stateMutability":"nonpayable"},{"type":"function","name":"register_card","inputs":[{"name":"card_address","type":"bytes32","internalType":"bytes32"},{"name":"initial_log_cid","type":"bytes","internalType":"bytes"},{"name":"policy_address","type":"bytes32","internalType":"bytes32"},{"name":"press_address","type":"bytes32","internalType":"bytes32"},{"name":"payload_hash","type":"bytes32","internalType":"bytes32"},{"name":"press_signature","type":"bytes","internalType":"bytes"},{"name":"expected_sequence","type":"uint64","internalType":"uint64"}],"outputs":[],"stateMutability":"nonpayable"},{"type":"function","name":"register_policy","inputs":[{"name":"policy_address","type":"bytes32","internalType":"bytes32"},{"name":"authorizer_pubkey","type":"bytes","internalType":"bytes"},{"name":"payload_hash","type":"bytes32","internalType":"bytes32"},{"name":"nonce_key","type":"bytes32","internalType":"bytes32"},{"name":"payload_version","type":"uint32","internalType":"uint32"},{"name":"governance_sigs","type":"bytes[]","internalType":"bytes[]"}],"outputs":[],"stateMutability":"nonpayable"},{"type":"function","name":"register_sub_card","inputs":[{"name":"sub_card_address","type":"bytes32","internalType":"bytes32"},{"name":"master_card_address","type":"bytes32","internalType":"bytes32"},{"name":"registration_log_head","type":"bytes","internalType":"bytes"},{"name":"sub_card_doc_cid","type":"bytes","internalType":"bytes"},{"name":"press_address","type":"bytes32","internalType":"bytes32"},{"name":"payload_hash","type":"bytes32","internalType":"bytes32"},{"name":"press_signature","type":"bytes","internalType":"bytes"},{"name":"expected_sequence","type":"uint64","internalType":"uint64"}],"outputs":[],"stateMutability":"nonpayable"},{"type":"function","name":"revoke_press","inputs":[{"name":"policy_address","type":"bytes32","internalType":"bytes32"},{"name":"press_address","type":"bytes32","internalType":"bytes32"},{"name":"payload_hash","type":"bytes32","internalType":"bytes32"},{"name":"nonce_key","type":"bytes32","internalType":"bytes32"},{"name":"payload_version","type":"uint32","internalType":"uint32"},{"name":"governance_sigs","type":"bytes[]","internalType":"bytes[]"}],"outputs":[],"stateMutability":"nonpayable"},{"type":"function","name":"rotate_authorizer_key","inputs":[{"name":"policy_address","type":"bytes32","internalType":"bytes32"},{"name":"new_authorizer_key","type":"bytes","internalType":"bytes"},{"name":"payload_hash","type":"bytes32","internalType":"bytes32"},{"name":"nonce_key","type":"bytes32","internalType":"bytes32"},{"name":"payload_version","type":"uint32","internalType":"uint32"},{"name":"governance_sigs","type":"bytes[]","internalType":"bytes[]"}],"outputs":[],"stateMutability":"nonpayable"},{"type":"function","name":"rotate_governance_keys","inputs":[{"name":"body_id","type":"uint8","internalType":"uint8"},{"name":"new_keys_flat","type":"bytes","internalType":"bytes"},{"name":"new_key_count","type":"uint8","internalType":"uint8"},{"name":"new_quorum","type":"uint8","internalType":"uint8"},{"name":"payload_hash","type":"bytes32","internalType":"bytes32"},{"name":"nonce_key","type":"bytes32","internalType":"bytes32"},{"name":"payload_version","type":"uint32","internalType":"uint32"},{"name":"governance_sigs","type":"bytes[]","internalType":"bytes[]"}],"outputs":[],"stateMutability":"nonpayable"},{"type":"function","name":"storageContract","inputs":[],"outputs":[{"name":"","type":"address","internalType":"contract MockStorage"}],"stateMutability":"view"},{"type":"function","name":"update_card_head","inputs":[{"name":"card_address","type":"bytes32","internalType":"bytes32"},{"name":"new_log_cid","type":"bytes","internalType":"bytes"},{"name":"prev_log_cid","type":"bytes","internalType":"bytes"},{"name":"press_address","type":"bytes32","internalType":"bytes32"},{"name":"payload_hash","type":"bytes32","internalType":"bytes32"},{"name":"press_signature","type":"bytes","internalType":"bytes"},{"name":"expected_sequence","type":"uint64","internalType":"uint64"}],"outputs":[],"stateMutability":"nonpayable"},{"type":"function","name":"verifierModule","inputs":[],"outputs":[{"name":"","type":"address","internalType":"address"}],"stateMutability":"view"},{"type":"event","name":"AddressTransition","inputs":[{"name":"old_address","type":"bytes32","indexed":true,"internalType":"bytes32"},{"name":"new_address","type":"bytes32","indexed":true,"internalType":"bytes32"},{"name":"timestamp","type":"uint64","indexed":false,"internalType":"uint64"}],"anonymous":false},{"type":"event","name":"AuthorizerKeyRotated","inputs":[{"name":"policy_address","type":"bytes32","indexed":true,"internalType":"bytes32"},{"name":"timestamp","type":"uint64","indexed":false,"internalType":"uint64"}],"anonymous":false},{"type":"event","name":"CardHeadUpdated","inputs":[{"name":"card_address","type":"bytes32","indexed":true,"internalType":"bytes32"},{"name":"prev_log_cid","type":"bytes","indexed":false,"internalType":"bytes"},{"name":"new_log_cid","type":"bytes","indexed":false,"internalType":"bytes"},{"name":"press_address","type":"bytes32","indexed":false,"internalType":"bytes32"},{"name":"timestamp","type":"uint64","indexed":false,"internalType":"uint64"}],"anonymous":false},{"type":"event","name":"CardRegistered","inputs":[{"name":"card_address","type":"bytes32","indexed":true,"internalType":"bytes32"},{"name":"policy_address","type":"bytes32","indexed":true,"internalType":"bytes32"},{"name":"press_address","type":"bytes32","indexed":false,"internalType":"bytes32"},{"name":"initial_log_cid","type":"bytes","indexed":false,"internalType":"bytes"},{"name":"timestamp","type":"uint64","indexed":false,"internalType":"uint64"}],"anonymous":false},{"type":"event","name":"GovernanceKeysRotated","inputs":[{"name":"body_id","type":"uint8","indexed":false,"internalType":"uint8"},{"name":"new_quorum","type":"uint8","indexed":false,"internalType":"uint8"},{"name":"key_count","type":"uint8","indexed":false,"internalType":"uint8"},{"name":"version","type":"uint32","indexed":false,"internalType":"uint32"},{"name":"timestamp","type":"uint64","indexed":false,"internalType":"uint64"}],"anonymous":false},{"type":"event","name":"LogicUpgradeCancelled","inputs":[{"name":"cancelled_address","type":"address","indexed":true,"internalType":"address"},{"name":"cancelled_at","type":"uint64","indexed":false,"internalType":"uint64"}],"anonymous":false},{"type":"event","name":"LogicUpgradeConfirmed","inputs":[{"name":"new_logic_address","type":"address","indexed":true,"internalType":"address"},{"name":"confirmed_at","type":"uint64","indexed":false,"internalType":"uint64"}],"anonymous":false},{"type":"event","name":"LogicUpgradeProposed","inputs":[{"name":"proposed_address","type":"address","indexed":true,"internalType":"address"},{"name":"proposed_at","type":"uint64","indexed":false,"internalType":"uint64"},{"name":"timelock_expires","type":"uint64","indexed":false,"internalType":"uint64"}],"anonymous":false},{"type":"event","name":"OpenOfferClaimed","inputs":[{"name":"offer_id","type":"bytes32","indexed":true,"internalType":"bytes32"},{"name":"card_address","type":"bytes32","indexed":true,"internalType":"bytes32"},{"name":"use_count","type":"uint64","indexed":false,"internalType":"uint64"},{"name":"timestamp","type":"uint64","indexed":false,"internalType":"uint64"}],"anonymous":false},{"type":"event","name":"PolicyRegistered","inputs":[{"name":"policy_address","type":"bytes32","indexed":true,"internalType":"bytes32"},{"name":"timestamp","type":"uint64","indexed":false,"internalType":"uint64"}],"anonymous":false},{"type":"event","name":"PressAuthorized","inputs":[{"name":"policy_address","type":"bytes32","indexed":true,"internalType":"bytes32"},{"name":"press_address","type":"bytes32","indexed":true,"internalType":"bytes32"},{"name":"timestamp","type":"uint64","indexed":false,"internalType":"uint64"}],"anonymous":false},{"type":"event","name":"PressRevoked","inputs":[{"name":"policy_address","type":"bytes32","indexed":true,"internalType":"bytes32"},{"name":"press_address","type":"bytes32","indexed":true,"internalType":"bytes32"},{"name":"timestamp","type":"uint64","indexed":false,"internalType":"uint64"}],"anonymous":false},{"type":"event","name":"SubCardDeregistered","inputs":[{"name":"sub_card_address","type":"bytes32","indexed":true,"internalType":"bytes32"},{"name":"master_address","type":"bytes32","indexed":false,"internalType":"bytes32"},{"name":"timestamp","type":"uint64","indexed":false,"internalType":"uint64"}],"anonymous":false},{"type":"event","name":"SubCardRegistered","inputs":[{"name":"sub_card_address","type":"bytes32","indexed":true,"internalType":"bytes32"},{"name":"master_address","type":"bytes32","indexed":true,"internalType":"bytes32"},{"name":"sub_card_doc_cid","type":"bytes","indexed":false,"internalType":"bytes"},{"name":"timestamp","type":"uint64","indexed":false,"internalType":"uint64"}],"anonymous":false},{"type":"event","name":"VerifierUpgradeCancelled","inputs":[{"name":"cancelled_address","type":"address","indexed":true,"internalType":"address"},{"name":"cancelled_at","type":"uint64","indexed":false,"internalType":"uint64"}],"anonymous":false},{"type":"event","name":"VerifierUpgradeConfirmed","inputs":[{"name":"new_verifier_address","type":"address","indexed":true,"internalType":"address"},{"name":"confirmed_at","type":"uint64","indexed":false,"internalType":"uint64"}],"anonymous":false},{"type":"event","name":"VerifierUpgradeProposed","inputs":[{"name":"proposed_address","type":"address","indexed":true,"internalType":"address"},{"name":"proposed_at","type":"uint64","indexed":false,"internalType":"uint64"},{"name":"timelock_expires","type":"uint64","indexed":false,"internalType":"uint64"}],"anonymous":false},{"type":"error","name":"BatchItemInvalid","inputs":[]},{"type":"error","name":"BatchSizeInvalid","inputs":[]},{"type":"error","name":"CardAlreadyExists","inputs":[]},{"type":"error","name":"CardNotFound","inputs":[]},{"type":"error","name":"DuplicateSigner","inputs":[]},{"type":"error","name":"ForwardAlreadySet","inputs":[]},{"type":"error","name":"GovernanceVersionMismatch","inputs":[]},{"type":"error","name":"InsufficientQuorum","inputs":[]},{"type":"error","name":"InvalidGovernanceSignature","inputs":[]},{"type":"error","name":"InvalidPayload","inputs":[]},{"type":"error","name":"InvalidPressSignature","inputs":[]},{"type":"error","name":"KeysetTooSmall","inputs":[]},{"type":"error","name":"LogCidTooLong","inputs":[]},{"type":"error","name":"NoUpgradePending","inputs":[]},{"type":"error","name":"NonceReused","inputs":[]},{"type":"error","name":"OfferAtCapacity","inputs":[]},{"type":"error","name":"OfferExpired","inputs":[]},{"type":"error","name":"PolicyAlreadyRegistered","inputs":[]},{"type":"error","name":"PressNotAuthorized","inputs":[]},{"type":"error","name":"PressRevoked_","inputs":[]},{"type":"error","name":"QuorumTooLow","inputs":[]},{"type":"error","name":"SequenceMismatch","inputs":[]},{"type":"error","name":"StalePrevCid","inputs":[]},{"type":"error","name":"StaleRegistrationLogHead","inputs":[]},{"type":"error","name":"SubCardAlreadyActive","inputs":[]},{"type":"error","name":"SubCardNotFound","inputs":[]},{"type":"error","name":"UnrecognizedPolicy","inputs":[]},{"type":"error","name":"UpgradeAddressMismatch","inputs":[]},{"type":"error","name":"UpgradeAlreadyPending","inputs":[]},{"type":"error","name":"UpgradeTimelockNotElapsed","inputs":[]}],"bytecode":{"object":"0x6080346200009557601f620043e338819003918201601f19168301916001600160401b038311848410176200009957808492604094855283398101031262000095576200005a60206200005283620000ad565b9201620000ad565b5f80546001600160a01b039384166001600160a01b031991821617909155600180549290931691161790556040516143209081620000c38239f35b5f80fd5b634e487b7160e01b5f52604160045260245ffd5b51906001600160a01b0382168203620000955756fe6104a0806040526004361015610013575f80fd5b5f610460525f3560e01c90816311ce02671461376f57508063203327941461374757806335035e871461335057806337791b4b14612e1457806341506fc114612de95780634df477171461284b57806359f0ea45146123135780635e5efda214611f965780635eb2acd414611df05780636dfbdbed146119335780637c18c6ac146114ad5780637fa05cc7146112015780637fcd25a7146111d55780638510d59914610c8a5780639042e3d414610a955780639068a67b14610a72578063a17f245114610827578063aa3bf9dd146105d1578063c2b9931514610463578063e79b1462146101305763f85378c014610109575f80fd5b346101295761046051366003190112610129576020600354604051908152f35b6104605180fd5b346101295760a0366003190112610129576024803590600435906001600160401b03906084358281116101295761016b90369060040161382f565b60018060a01b0380610460515416926040519063f9828eab60e01b80835288600484015261046051838881895afa801561031e576104605193849161043d575b5015610409576040518181528a6004820152610460518189818a5afa90811561031e57610460519161041b575b50156104095760405190815288600482015261046051818881895afa90811561031e5761046051916103df575b506103cd57604051916315e1c4a560e11b83526004830152604435868301526104605182604481885afa801561031e576104605192839161039c575b50604083510361038a571561037857600154604051633def756560e01b81529460209486949216928492839261027d9260643560048601613b90565b03915afa90811561031e57610460519161033e575b501561032c57803b15610129578460405192633d6896b560e01b845285600485015283015281604481610460519361046051905af1801561031e57610307575b5060207f68eb2cdf6595c67c76f70ac2d3cc0a5b7284ad177d29bb7831a7228739ba3cc8916040519042168152a36104605180f35b610310906138ec565b6104605161012957836102d2565b6040513d61046051823e3d90fd5b604051630428246160e21b8152600490fd5b90506020813d602011610370575b816103596020938361394a565b810103126101295761036a90613af1565b86610292565b3d915061034c565b604051634323fccb60e01b8152600490fd5b604051632609f00f60e11b8152600490fd5b90506103be9192503d8061046051833e6103b6818361394a565b810190613afe565b5050509392915050918a610241565b604051630ed50b8960e41b8152600490fd5b6103fe91503d8061046051833e6103f6818361394a565b810190613c21565b50925050508a610205565b604051630479201160e41b8152600490fd5b61043291503d8061046051833e6103f6818361394a565b93505050508b6101d8565b90506104579193503d8061046051833e6103f6818361394a565b9593505050928b6101ab565b346101295761047136613888565b610460515460405163a8463b4360e01b8152600481018a90526001600160a01b03969592949291602090829060249082908b165afa90811561031e576104605191610597575b506105855760408703610573576104cd94613dfc565b61046051541691823b156101295761050d92604051808095819463358c527d60e21b83528860048401526040602484015261046051966044840191613ad1565b039161046051905af1801561031e5761055c575b507fa1eff5ea6a574f90041ddbc150b2f9d1f19d51fc69185ba013e519858513619360206040516001600160401b0342168152a26104605180f35b610565906138ec565b610460516101295781610521565b604051637c6953f960e01b8152600490fd5b6040516305e42f9560e31b8152600490fd5b90506020813d6020116105c9575b816105b26020938361394a565b81010312610129576105c390613af1565b8a6104b7565b3d91506105a5565b34610129576105df366137d4565b9060018060a0969495961b03938461046051541696604051637c857ce160e11b81526080816004818c5afa801561031e57879161046051916107f5575b50166107e357851696871561057357602060049160405192838092630e80687d60e41b82525afa801561031e57869161046051916107a7575b50168714610573578561066794613dfc565b610460515416604051630eee82a760e41b81526104605160048201526104605181602481855afa90811561031e57610460519161077d575b506001600160401b039182421693813b156101295763ffffffff604051936301ad305b60e31b8552876004860152866024860152166044840152606483015281608481610460519361046051905af1801561031e57610766575b5062093a80820190811161075257604080516001600160401b0393841681529190921660208201527f54b7e57bdf498431fffda4604296a8b3b5267707bbb9842e8fb0a0998b276baa91819081015b0390a26104605180f35b634e487b7160e01b5f52601160045260245ffd5b61076f906138ec565b6104605161012957836106f9565b61079c91503d8061046051833e610794818361394a565b810190613a77565b50925050508461069f565b9150506020813d6020116107db575b816107c36020938361394a565b81010312610129576107d5869161396b565b89610655565b3d91506107b6565b60405163456a33fd60e11b8152600490fd5b610817915060803d608011610820575b61080f818361394a565b8101906139a4565b5050508a61061c565b503d610805565b346101295760031960a03682011261012957600435906001600160401b036064358181116101295761085d90369060040161382f565b9290608435908382168203610a6e576104608051546040516376b48c6f60e01b81526004810189905291516001600160a01b03969187169083602481845afa94851561031e5761046051988996879687969091879190610a33575b508b15908115610a2a575b50610a18576040519363f9828eab60e01b85528b60048601528460248161046051935afa801561031e57610460519485916109f2575b5015610409576109109360443590602435906140db565b8042169561046051541691823b156101295761095795610966916040519788966375356a3760e11b88528c60048901528b602489015260e0604489015260e4880190613b6b565b91868303016064870152613b6b565b936104605160848501521660a48301528460c483015281806104605194039161046051905af1801561031e576109db575b50604080519283526001600160401b0390911660208301527f7e030843ccfe8113f5e96d078c8e68f09b7b1badc59dc93d1c935da8341d730a919081908101610748565b6109e4906138ec565b610460516101295783610997565b9050610a0c9194503d8061046051833e6103f6818361394a565b9693505050938d6108f9565b6040516321551e4360e21b8152600490fd5b9050158d6108c3565b939b505094509450610a5b9195503d8061046051833e610a53818361394a565b810190613d75565b50939a939792969195929392908d6108b8565b5f80fd5b34610129576104605136600319011261012957602060025460e01c604051908152f35b346101295760e0366003190112610129576024356001600160401b03811161012957610ac590369060040161382f565b6044356001600160401b03811161012957610ae490369060040161382f565b9160a4356001600160401b03811161012957610b0490369060040161382f565b610b0c613872565b60018060a01b03610460515416916040519263f9828eab60e01b845260043560048501528360248161046051935afa93841561031e57610460519485948591610c60575b50156104095760408611610c4e57610b6f9360843590606435906140db565b60208151910120610b81368585613c66565b6020815191012003610c3c5761046051546001600160a01b0316803b15610129576040519063c7742b2560e01b82528161046051918180610bcc606435888c60043560048601613c9c565b039161046051905af1801561031e57610c25575b506107487fdecbb474724c79da3a1c789d3f4f48c6c8ad033cbb758dadfe0c308fdacabd5b93604051938493600435976001600160401b034216936064359387613cbf565b610c2e906138ec565b610460516101295784610be0565b60405163064824e760e41b8152600490fd5b604051634a9e835560e01b8152600490fd5b91955050610c7c9193503d8061046051833e6103f6818361394a565b95939150509490938a610b50565b346101295760c03660031901126101295760843563ffffffff808216809203610a6e5760a4356001600160401b03811161012957610ccc9036906004016137a4565b909160018060a01b0361046051541692604051936315e1c4a560e11b8552600435600486015260243560248601528460448161046051935afa94851561031e576104605161016081905260e0819052610140819052958695869161119c575b50604061016051510361038a57156103785760018060a01b035f54166101005260405192630eee82a760e41b8452600160048501525f84602481610100515afa8015610f4c575f60c0525f945f91611175575b5016036111635760405163ad13b54960e01b81526064356004820152602081602481610100515afa908115610f4c575f91611129575b506111175760c05151608052604051610dcc81613913565b6106403682375f6101208190526001549094906001600160a01b03165b816101205110610f69575050505060ff1611610f5757610100513b15610a6e576040516324d5e45b60e21b815260643560048201525f8160248183610100515af18015610f4c57610f3d575b5060018060a01b03610460515416906001600160401b03421692823b15610129576001600160401b039260405193849263073a33ed60e31b845260043560048501526024356024850152610120604485015260ff610e9a610124860161016051613b6b565b9560e05160648701521660848501526104605160a48501521660c48301526001600160401b03610140511660e48301528461010483015281806104605194039161046051905af1801561031e57610f26575b50604051908152602435907fa9070e40a2bdfb066c087f4abf4eb3bde3c9abb11368d7deb87155a0660942e2602060043592a36104605180f35b610f2f906138ec565b610460516101295781610eec565b610f46906138ec565b82610e35565b6040513d5f823e3d90fd5b60405163284422c160e11b8152600490fd5b6040610f79610120518487613be0565b905003610fac575f60a0525f5b60805160061c8110610fbe575b5060a05115610fac576001610120510161012052610de9565b60405163f21458ad60e01b8152600490fd5b604051610fca8161392f565b6040815260403660208301375f5b604081106110b657506020610ff1610120518689613be0565b604051633def756560e01b81529384928392611014929160443560048601613b90565b0381865afa908115610f4c575f9161107c575b5061103457600101610f86565b6110418185989398613deb565b5161106a5761105260019185613deb565b525f1981146107525760010194600160a05288610f93565b604051638044bb3360e01b8152600490fd5b90506020813d6020116110ae575b816110976020938361394a565b81010312610a6e576110a890613af1565b8a611027565b3d915061108a565b828060069c969994979a9c9b95989b1b0460401486151715610752576001906001600160f81b03196110f76110ef8360068b901b6139db565b60c051613dda565b51165f1a6111058285613dda565b53019997949196939998959298610fd8565b604051631d5093e160e01b8152600490fd5b90506020813d60201161115b575b816111446020938361394a565b81010312610a6e5761115590613af1565b86610db4565b3d9150611137565b60405163169461f760e11b8152600490fd5b905061118c9194503d805f833e610794818361394a565b50959290915060c0529388610d7e565b919550506111b89195503d8061046051833e6103b6818361394a565b5098946101609894919392985260e0529590966101405287610d2b565b3461012957610460513660031901126101295760206001600160401b0360025460a01c16604051908152f35b3461012957610100366003190112610129576044356001600160401b0381116101295761123290369060040161382f565b6064356001600160401b0381116101295761125190369060040161382f565b9260c4356001600160401b0381116101295761127190369060040161382f565b61127961385c565b9060018060a01b03610460515416926040519363f9828eab60e01b855260243560048601526104605185602481845afa90811561031e5761046051958692839190611485575b501561040957604051906376b48c6f60e01b825260043560048301528160248161046051935afa90811561031e576104605191611462575b50611450576020815191012061130e368988613c66565b602081519101200361143e5760408711610c4e5760408811610c4e5761133b9360a43590608435906140db565b60018060a01b036104605154166001600160401b03421693813b15610129576113a46113916040519485936375356a3760e11b85526004356004860152602435602486015260e0604486015260e4850191613ad1565b8281036003190160648401528786613ad1565b91600160848301528560a48301526104605160c483015281806104605194039161046051905af1801561031e57611427575b506113ed9060405193604085526040850191613ad1565b9060208301527f4392eb4d7d2c464c72b93fe7988a10d9272cff65a0890c1e100737e4c13f64926024359280600435930390a36104605180f35b611430906138ec565b6104605161012957836113d6565b604051639bd045ff60e01b8152600490fd5b6040516317cbfb0560e11b8152600490fd5b61147991503d8061046051833e610a53818361394a565b5050925050508a6112f7565b919650506114a091503d8061046051833e6103f6818361394a565b92979291508c90506112bf565b34610129576114bb36613888565b9394909692610340969296526103e052610360526103c052929190926024602060018060a01b036104605154166040519283809263a8463b4360e01b82526103c05160048301525afa90811561031e5761046051916118f9575b50156118e75760406103e051036105735760018060a01b035f54166103805260405191630eee82a760e41b83525f60048401525f83602481610380515afa8015610f4c575f610300525f935f916118bf575b5063ffffffff8091169116036111635760405163ad13b54960e01b8152610340516004820152602081602481610380515afa908115610f4c575f91611885575b5061111757610300515161020052604051610320526115c861032051613913565b6106403661032051375f6103a08190526001549094906001600160a01b03165b826103a051106116fc578560ff851611610f5757610380513b15610a6e576040516324d5e45b60e21b81526103405160048201525f8160248183610380515af18015610f4c576116ed575b5061046051546001600160a01b0316803b15610129576040519063358c527d60e21b82526103c0516004830152604060248301528161046051918180611683604482016103e05161036051613ad1565b039161046051905af1801561031e576116d6575b6040516001600160401b03421681527f8dadcb4cd806b8a596817faf9e96b754c9dc2fe7d73f558f42a3c5c4bd86dbd660206103c05192a26104605180f35b6116df906138ec565b610460516101295780611697565b6116f6906138ec565b80611633565b604061170c6103a0518588613be0565b905003610fac575f610220525f5b6102005160061c8110611742575b506102205115610fac5760016103a051016103a0526115e8565b60405161174e8161392f565b6040815260403660208301375f5b6040811061182d575060206117756103a051878a613be0565b604051633def756560e01b8152938492839261179692918a60048601613b90565b0381865afa908115610f4c575f916117f3575b506117b65760010161171a565b6117c68161032098939851613deb565b5161106a576117da60019161032051613deb565b525f198114610752576001019460016102205286611728565b90506020813d602011611825575b8161180e6020938361394a565b81010312610a6e5761181f90613af1565b886117a9565b3d9150611801565b828060069894959697981b0460401484151715610752576001906001600160f81b031961186a61186183600689901b6139db565b61030051613dda565b51165f1a6118788285613dda565b530195949392919561175c565b90506020813d6020116118b7575b816118a06020938361394a565b81010312610a6e576118b190613af1565b856115a7565b3d9150611893565b90506118d69193503d805f833e610794818361394a565b509492909150610300529286611567565b6040516360b302c560e11b8152600490fd5b90506020813d60201161192b575b816119146020938361394a565b810103126101295761192590613af1565b85611515565b3d9150611907565b3461012957610100366003190112610129576044356001600160401b0381116101295761196490369060040161382f565b906101e052611971613791565b60e4356001600160401b038111610129576119909036906004016137a4565b916024602060018060a01b036104605154166040519283809263a8463b4360e01b825260043560048301525afa90811561031e576104605191611db6575b50156118e757604084036105735760018060a01b035f54169260405191630eee82a760e41b8352600160048401525f83602481885afa908115610f4c575f915f945f91611d93575b5063ffffffff8091169116036111635760405163ad13b54960e01b815260a4356004820152602081602481895afa908115610f4c575f91611d59575b506111175780519060405190611a6782613913565b6106403683375f955f6101c05260018060a01b0360015416905b856101c05110611bd35789898960ff8a1611610f5757803b15610a6e575f80916024604051809481936324d5e45b60e21b835260a43560048401525af18015610f4c57611bc4575b506104605154426001600160401b031691906001600160a01b0316803b1561012957611b269160405192839163073a33ed60e31b83526004356004840152602435602484015261012060448401526101248301906101e051613ad1565b916064356064830152610460516084830152600160a48301526104605160c48301528460e48301526104605161010483015281806104605194039161046051905af1801561031e57611bad575b50604051908152602435907f46aa8cfd008d95db58df0346182d92354c303df8a9f422c819dab004325ccbec602060043592a36104605180f35b611bb6906138ec565b610460516101295781611b73565b611bcd906138ec565b81611ac9565b6040611be36101c0518884613be0565b905003610fac575f805b8660061c8110611c0e575b5015610fac5760016101c051016101c052611a81565b604051611c1a8161392f565b6040815260403660208301375f5b60408110611cf357506020611c416101c0518b87613be0565b604051633def756560e01b81529384928392611c64929160843560048601613b90565b0381885afa908115610f4c575f91611cb9575b50611c8457600101611bed565b9050611c9381869a939a613deb565b5161106a57611ca460019186613deb565b525f198114610752576001019660018b611bf8565b90506020813d602011611ceb575b81611cd46020938361394a565b81010312610a6e57611ce590613af1565b8d611c77565b3d9150611cc7565b8280949e95989b9360069e95979a9d9e9b989b1b0460401486151715610752576001906001600160f81b0319611d36611d308360068b901b6139db565b8d613dda565b51165f1a611d448285613dda565b53019c929b9a9794919996939c989598611c28565b90506020813d602011611d8b575b81611d746020938361394a565b81010312610a6e57611d8590613af1565b87611a52565b3d9150611d67565b91945050611dab91503d805f833e610794818361394a565b509491509388611a16565b90506020813d602011611de8575b81611dd16020938361394a565b8101031261012957611de290613af1565b856119ce565b3d9150611dc4565b346101295760e0366003190112610129576001600160401b0360043560243582811161012957611e2490369060040161382f565b90604435936064359260a43582811161012957611e4590369060040161382f565b90611e4e613872565b6104605154604051633c7c4b6560e21b8152600481018a90526001600160a01b0394916020908290602490829089165afa90811561031e576104605191611f5c575b50611f4a5760408511610c4e57611eab92608435898c6140db565b610460515416803b156101295760405162c05b4f60e31b815261046051909182908180611edf8a8d898c8f60048701613d17565b039161046051905af1801561031e57611f33575b507f6d0113cd112583818a8831368479e89fa93a8f264d9cb1e74eb3fcb95c5801bb93611f299160405194859442169285613d47565b0390a36104605180f35b611f3c906138ec565b610460516101295786611ef3565b604051638db034d360e01b8152600490fd5b90506020813d602011611f8e575b81611f776020938361394a565b8101031261012957611f8890613af1565b8b611e90565b3d9150611f6a565b3461012957610140366003190112610129576024356001600160401b038116809103610a6e576044356001600160401b038116809103610a6e576084356001600160401b03811161012957611fef90369060040161382f565b929091610104356001600160401b0381116101295761201290369060040161382f565b916001600160401b0361012435166101243503610a6e578015159081612308575b506122f657610460515460405163c7293a7160e01b81526004803590820152936001600160a01b0390911690602085602481855afa94851561031e5761046051956122ba575b506001600160401b0381141590816122a6575b5061229457602060249160405192838092633c7c4b6560e21b825260643560048301525afa90811561031e57610460519161225a575b50611f4a5760408511610c4e576120e691610124359160e43560c43560a4356140db565b61046051546001600160a01b03166120fd82613cff565b813b156101295760405163439ee84f60e11b8152610460805160048035908401526001600160401b0393909316602483015251909283916044918391905af1801561031e57612243575b5061046051546001600160a01b0316803b156101295760405162c05b4f60e31b81526104605190918290818061218a60c43560a4358b8b60643560048701613d17565b039161046051905af1801561031e5761222c575b50611f296121cc7f6d0113cd112583818a8831368479e89fa93a8f264d9cb1e74eb3fcb95c5801bb92613cff565b604080516001600160401b03928316815242909216602083018190529160643591600435917f960b75d5aaf344b563f0f3e16bc6484066e78d9a0d346a124d59dbcc8e895f289190a360405191829160a435966064359660c43585613d47565b612235906138ec565b61046051610129578361219e565b61224c906138ec565b610460516101295783612147565b90506020813d60201161228c575b816122756020938361394a565b810103126101295761228690613af1565b866120c2565b3d9150612268565b604051631a3c9f2d60e01b8152600490fd5b90506001600160401b03851610158761208c565b9094506020813d6020116122ee575b816122d66020938361394a565b81010312610129576122e79061397f565b9387612079565b3d91506122c9565b604051639cb1308760e01b8152600490fd5b905042101586612033565b3461012957610100366003190112610129576044356001600160401b038111610129576123449036906004016137a4565b906064356001600160401b038111610129576123649036906004016137a4565b6084356001600160401b038111610129576123839036906004016137a4565b94909160c4356001600160401b038111610129576123a590369060040161382f565b6123ad61385c565b9084158015612841575b61282557848414801590612837575b61282557610460515460405163a8463b4360e01b815260048035908201526001600160a01b039091169390602081602481885afa90811561031e5761046051916127eb575b50156118e757604051916315e1c4a560e11b8352600435600484015260243560248401526104605183604481885afa92831561031e576104605193849182916127c1575b50604082510361038a571561037857600154604051633def756560e01b81529360209385936001600160a01b039093169284928392612495929160a43560048601613b90565b03915afa90811561031e576104605191612787575b501561032c576001600160401b0380911691160361277557610460515b83811061264c5750803b15610129576040519063b134066160e01b82526004356004830152602435602483015281604481610460519361046051905af1801561031e57612635575b506001600160401b03421691610460515b81811061252e576104605180f35b61046051546001600160a01b03169061254881848a613bbc565b3591612555828b89613be0565b939091803b15610129576125889460405180968194829363c7742b2560e01b845261046051976024359260048601613c9c565b039161046051905af191821561031e57898686868c8c958c9861260d575b50926125f3876125eb817fdecbb474724c79da3a1c789d3f4f48c6c8ad033cbb758dadfe0c308fdacabd5b98966125e4826126049860019f9b613bbc565b359a613be0565b959096613be0565b604051958695602435939187613cbf565b0390a201612520565b9550505050505061261f9192506138ec565b6104605161012957849086898686868c8f6125a6565b61263e906138ec565b61046051610129578661250f565b6001810180821161275b575b8481106127275750604061266d828a88613be0565b905011610c4e5761267f818589613bbc565b60405163f9828eab60e01b8152903560048201526104605181602481865afa90811561031e57610460519182918291612703575b501561040957600435036126f157602081519101206126dd6126d683868a613be0565b3691613c66565b6020815191012003610c3c576001016124c7565b60405163e9be8ad760e01b8152600490fd5b91505061271d91503d8061046051833e6103f6818361394a565b91508c90506126b3565b61273982868a9698949b95999a613bbc565b35612745828787613bbc565b35146126f1576001019790949296959197612658565b634e487b7160e01b61046051526011600452602461046051fd5b60405163329ad11160e11b8152600490fd5b90506020813d6020116127b9575b816127a26020938361394a565b81010312610129576127b390613af1565b8a6124aa565b3d9150612795565b9150506127dc9193503d8061046051833e6103b6818361394a565b5050959391509150908d61244f565b90506020813d60201161281d575b816128066020938361394a565b810103126101295761281790613af1565b8b61240b565b3d91506127f9565b604051631bc435c360e31b8152600490fd5b50848914156123c6565b50606485116123b7565b3461012957610100366003190112610129576004356102805260ff61028051166102805103610a6e576024356001600160401b0381116101295761289390369060040161382f565b6102e0526044356102605260ff61026051166102605103610a6e576064356102c05260ff6102c051166102c05103610a6e576128cd613791565b60e4356001600160401b038111610129576128ec9036906004016137a4565b9091600360ff610260511610612dd757607f6102605160011c1660ff6102c051161115612dc557613fc06102605160061b1660ff6102605116810460401460ff610260511615171561275b576102e051036105735760018060a01b035f54169260405191630eee82a760e41b835260ff610280511660048401525f83602481885afa8015610f4c575f610240525f935f91612d96575b5063ffffffff8091169116036111635760405163ad13b54960e01b815260a4356004820152602081602481885afa908115610f4c575f91612d5c575b5061111757610240515160061c610180526040516129db81613913565b6106403682375f6102a08190526001549094906001600160a01b03165b816102a05110612bd0575050505060ff1611610f5757803b15610a6e575f80916024604051809481936324d5e45b60e21b835260a43560048401525af18015610f4c57612bc1575b5060018060a01b0361046051541690604051630eee82a760e41b815260ff610280511660048201526104605181602481865afa90811561031e5760019163ffffffff916104605191612b9f575b50160163ffffffff811161275b57823b1561012957604051634cd884b960e11b81526102805160ff16600482015260c060248201526102e0519092839163ffffffff91612ade9160c4850191613ad1565b9260ff6102605116604484015260ff6102c05116606484015216938460848301526104605160a483015281806104605194039161046051905af1801561031e57612b88575b7f0354acf6fa44e4ce329e4685ec49651e65c4ffd93c47e99e9a49e99ce5dd99c960a0836040519060ff6102805116825260ff6102c05116602083015260ff6102605116604083015260608201526001600160401b0342166080820152a16104605180f35b612b91906138ec565b610460516101295781612b23565b612bb691503d8061046051833e610794818361394a565b509250505085612a8d565b612bca906138ec565b81612a40565b6040612be06102a0518487613be0565b905003610fac575f6101a0525f5b610180518110612c13575b506101a05115610fac5760016102a051016102a0526129f8565b604051612c1f8161392f565b6040815260403660208301375f5b60408110612cfa57506020612c466102a0518689613be0565b604051633def756560e01b81529384928392612c69929160843560048601613b90565b0381865afa908115610f4c575f91612cc0575b50612c8957600101612bee565b612c968185989398613deb565b5161106a57612ca760019185613deb565b525f198114610752576001019460016101a05288612bf9565b90506020813d602011612cf2575b81612cdb6020938361394a565b81010312610a6e57612cec90613af1565b8a612c7c565b3d9150612cce565b828060069c969994979a9c9b95989b1b0460401486151715610752576001906001600160f81b0319612d3c612d338360068b901b6139db565b61024051613dda565b51165f1a612d4a8285613dda565b53019997949196939998959298612c2d565b90506020813d602011612d8e575b81612d776020938361394a565b81010312610a6e57612d8890613af1565b866129be565b3d9150612d6a565b63ffffffff9450849150612db3903d805f833e610794818361394a565b50969290915061024052949150612982565b604051637886d2b560e01b8152600490fd5b60405163058bab5560e01b8152600490fd5b346101295761046051366003190112610129576001546040516001600160a01b039091168152602090f35b3461012957612e22366137d4565b610440959095526104605154604051637c857ce160e11b81529295939491936001600160a01b0390911692608081600481875afa90811561031e5761046051918291829161332c575b506001600160a01b0316801561331a57610440516001600160a01b031603613308576001600160401b031662093a80810180911161275b5742106132f657604051630eee82a760e41b948582526104605160048301528160248161046051935afa90811561031e5761046051916132d4575b5063ffffffff80809316911603611163575f8054604051958652600486018290526001600160a01b03169790856024818b5afa918215610f4c575f925f965f916132ad575b5081169116036111635760405163ad13b54960e01b8152600481018790526020816024818b5afa908115610f4c575f91613273575b506111175780519260405192612f6c84613913565b6106403685375f965f6104205260018060a01b0360015416915b8061042051106130e4578a8a8a60ff8b1611610f5757813b15610a6e575f916024839260405194859384926324d5e45b60e21b845260048401525af18015610f4c576130d5575b5061046051546001600160a01b0316803b1561012957604051906328a4eb0160e11b825281600481610460519361046051905af1801561031e576130be575b5061046051546001600160a01b0316803b1561012957604051639d991cc760e01b8152610440516001600160a01b031660048201526104605190918290602490829084905af1801561031e576130a7575b604051426001600160401b03168152610440516001600160a01b0316907f127d6c5aafa4417b1a92b41f8c551f6a895cd3bdba1f3216fcf8cbc65f7b03f890602090a26104605180f35b6130b0906138ec565b61046051610129578061305d565b6130c7906138ec565b61046051610129578061300c565b6130de906138ec565b80612fcd565b60406130f4610420518385613be0565b905003610fac575f610400525f5b8760061c8110613127575b506104005115610fac576001610420510161042052612f86565b6040516131338161392f565b6040815260403660208301375f5b6040811061320c5750602061315a610420518587613be0565b604051633def756560e01b8152938492839261317b92918c60048601613b90565b0381885afa908115610f4c575f916131d2575b5061319b57600101613102565b6131a881889b939b613deb565b5161106a576131b960019188613deb565b525f19811461075257600101976001610400528b61310d565b90506020813d602011613204575b816131ed6020938361394a565b81010312610a6e576131fe90613af1565b8d61318e565b3d91506131e0565b82809c9e95989b9360069e95989b9e9d979a9d1b0460401486151715610752576001906001600160f81b03196132508d61324a8460068c901b6139db565b90613dda565b51165f1a61325e8285613dda565b53019c9a9794919996939c9b9895929b613141565b90506020813d6020116132a5575b8161328e6020938361394a565b81010312610a6e5761329f90613af1565b88612f57565b3d9150613281565b90508196506132c79193503d805f833e610794818361394a565b5090979294909150612f22565b6132eb91503d8061046051833e610794818361394a565b509250505088612edd565b60405163864d188160e01b8152600490fd5b604051637cb0d4a560e01b8152600490fd5b6040516352c650f960e01b8152600490fd5b915050613348915060803d6080116108205761080f818361394a565b509189612e6b565b34610a6e576080366003190112610a6e5760443563ffffffff808216809203610a6e576064356001600160401b038111610a6e576133929036906004016137a4565b5f54604051637c857ce160e11b8152946001600160a01b039091169392909190608086600481885afa958615610f4c575f96613723575b506001600160a01b0386161561331a5760405192630eee82a760e41b84525f60048501525f84602481895afa948515610f4c575f955f955f916136fb575b5016036111635760405163ad13b54960e01b81526024356004820152602081602481895afa908115610f4c575f916136c1575b5061111757835160405161344d81613913565b6106403682376001545f96906001600160a01b0316875b86811061354a578a8a8a60ff8b1611610f5757803b15610a6e575f80916024604051809481936324d5e45b60e21b8352833560048401525af18015610f4c5761353b575b505f546001600160a01b0316803b15610a6e575f80916004604051809481936328a4eb0160e11b83525af18015610f4c57613527575b50604051426001600160401b031681526001600160a01b03909116907f938f04969355975d632ce6a53d58df0bb910da2d4613bea2b80a67eee46860d890602090a26104605180f35b613530906138ec565b5f61046052816134de565b613544906138ec565b816134a8565b6040613557828989613be0565b905003610fac575f805b8660061c811061357a575b5015610fac57600101613464565b6040516135868161392f565b6040815260403660208301375f5b6040811061365b575060206135aa858c8c613be0565b906135cc6040519485938493633def756560e01b855260043560048601613b90565b0381885afa908115610f4c575f91613621575b506135ec57600101613561565b90506135fb81869b939b613deb565b5161106a5761360c60019186613deb565b525f198114610752576001019760018c61356c565b90506020813d602011613653575b8161363c6020938361394a565b81010312610a6e5761364d90613af1565b8e6135df565b3d915061362f565b82949e9480949e9460069e9d94979a9e9c999c9b989b1b04604014861517156107525760018f9160ff60f81b6136988d61324a848c60061b6139db565b51165f1a6136a68286613dda565b530190509d939d9c929c9b9794919a9b999699989598613594565b90506020813d6020116136f3575b816136dc6020938361394a565b81010312610a6e576136ed90613af1565b8761343a565b3d91506136cf565b919650506137149194503d805f833e610794818361394a565b50959290969150959489613407565b61373d91965060803d6080116108205761080f818361394a565b50505094866133c9565b34610a6e575f366003190112610a6e576002546040516001600160a01b039091168152602090f35b34610a6e575f366003190112610a6e575f546001600160a01b03168152602090f35b60c4359063ffffffff82168203610a6e57565b9181601f84011215610a6e578235916001600160401b038311610a6e576020808501948460051b010111610a6e57565b60a0600319820112610a6e576004356001600160a01b0381168103610a6e5791602435916044359160643563ffffffff81168103610a6e5791608435906001600160401b038211610a6e5761382b916004016137a4565b9091565b9181601f84011215610a6e578235916001600160401b038311610a6e5760208381860195010111610a6e57565b60e435906001600160401b0382168203610a6e57565b60c435906001600160401b0382168203610a6e57565b9060c0600319830112610a6e57600435916001600160401b0391602435838111610a6e57826138b99160040161382f565b93909392604435926064359260843563ffffffff81168103610a6e579260a435918211610a6e5761382b916004016137a4565b6001600160401b0381116138ff57604052565b634e487b7160e01b5f52604160045260245ffd5b61064081019081106001600160401b038211176138ff57604052565b606081019081106001600160401b038211176138ff57604052565b90601f801991011681019081106001600160401b038211176138ff57604052565b51906001600160a01b0382168203610a6e57565b51906001600160401b0382168203610a6e57565b519063ffffffff82168203610a6e57565b9190826080910312610a6e576139b98261396b565b916139c66020820161397f565b9160606139d560408401613993565b92015190565b9190820180921161075257565b6001600160401b0381116138ff57601f01601f191660200190565b5f5b838110613a145750505f910152565b8181015183820152602001613a05565b81601f82011215610a6e578051613a3a816139e8565b92613a48604051948561394a565b81845260208284010111610a6e57613a669160208085019101613a03565b90565b519060ff82168203610a6e57565b9060a082820312610a6e578151906001600160401b038211610a6e57613a9e918301613a24565b91613aab60208301613a69565b91613ab860408201613a69565b91613a666080613aca60608501613993565b9301613a69565b908060209392818452848401375f828201840152601f01601f1916010190565b51908115158203610a6e57565b9060e082820312610a6e578151906001600160401b038211610a6e57613b25918301613a24565b91602082015191613b3860408201613a69565b91613b4560608301613af1565b91613b526080820161397f565b91613a6660c0613b6460a0850161397f565b930161397f565b90602091613b8481518092818552858086019101613a03565b601f01601f1916010190565b9291613a669492613bae928552606060208601526060850191613ad1565b916040818403910152613b6b565b9190811015613bcc5760051b0190565b634e487b7160e01b5f52603260045260245ffd5b9190811015613bcc5760051b81013590601e1981360301821215610a6e5701908135916001600160401b038311610a6e576020018236038113610a6e579190565b9060a082820312610a6e578151906001600160401b038211610a6e57613c48918301613a24565b91602082015191604081015191613a66608060608401519301613af1565b929192613c72826139e8565b91613c80604051938461394a565b829481845281830111610a6e578281602093845f960137010152565b94939291604092613cba928752606060208801526060870191613ad1565b930152565b9496959192606094613ce5613cf3936001600160401b039660808a5260808a0191613ad1565b918783036020890152613ad1565b95604085015216910152565b9060016001600160401b038093160191821161075257565b91613d3890608094600196989793855260a0602086015260a0850191613ad1565b95604083015260608201520152565b92604092613d6e916001600160401b03939796978652606060208701526060860191613ad1565b9416910152565b60c081830312610a6e5780519260208201516001600160401b0390818111610a6e5784613da3918501613a24565b936040840151918211610a6e57613dbb918401613a24565b91613dc860608201613af1565b91613a6660a0613b646080850161397f565b908151811015613bcc570160200190565b906032811015613bcc5760051b0190565b5f8054604051630eee82a760e41b8152600481018390526001600160a01b03918216979496919590949392856024818b5afa908115610f4c575f915f965f916140b8575b5063ffffffff8091169116036111635760405163ad13b54960e01b8152600481018890526020816024818c5afa908115610f4c575f9161407e575b506111175780519260405192613e9084613913565b6106403685375f975f6104805260015416905b866104805110613efa575050505050505060ff1611610f5757813b15610a6e575f916024839260405194859384926324d5e45b60e21b845260048401525af18015610f4c57613eef5750565b613ef8906138ec565b565b6040613f0a610480518984613be0565b905003610fac575f805b8760061c8110613f35575b5015610fac576001610480510161048052613ea3565b604051613f418161392f565b6040815260403660208301375f5b6040811061401857506020613f68610480518c87613be0565b604051633def756560e01b81529384928392613f8992918c60048601613b90565b0381885afa908115610f4c575f91613fde575b50613fa957600101613f14565b9050613fb881879b939b613deb565b5161106a57613fc960019187613deb565b525f198114610752576001019760015f613f1f565b90506020813d602011614010575b81613ff96020938361394a565b81010312610a6e5761400a90613af1565b5f613f9c565b3d9150613fec565b929e94989c92829c9e94989c8060069d94989c999d1b0460401487151715610752576001906001600160f81b03196140588e61324a8460068d901b6139db565b51165f1a6140668285613dda565b53019e929c98949e9d9b97939d9a969995919a613f4f565b90506020813d6020116140b0575b816140996020938361394a565b81010312610a6e576140aa90613af1565b5f613e7b565b3d915061408c565b919650506140d091503d805f833e610794818361394a565b50969150955f613e40565b9192909460018060a01b03805f54169260409687519163a8463b4360e01b8352600497878985015260209384816024818b5afa90811561429b575f916142b5575b50156142a55789516315e1c4a560e11b8152888a8201528b60248201525f816044818b5afa95861561429b575f915f905f98614274575b508c835103614264571561425457918a6141898d9388969560015416945197889687958695633def756560e01b87528601613b90565b03915afa91821561424a575f92614214575b505015614204576001600160401b038091169116036141f457803b15610a6e575f92836044928651978895869463b134066160e01b865285015260248401525af19081156141eb5750613eef5750565b513d5f823e3d90fd5b835163329ad11160e11b81528390fd5b8551630428246160e21b81528590fd5b90809250813d8311614243575b61422b818361394a565b81010312610a6e5761423c90613af1565b5f8061419b565b503d614221565b88513d5f823e3d90fd5b8b51634323fccb60e01b81528b90fd5b8c51632609f00f60e11b81528c90fd5b9197505061428c91503d805f833e6103b6818361394a565b5050989250929050915f614153565b8b513d5f823e3d90fd5b89516360b302c560e11b81528990fd5b90508481813d83116142e3575b6142cc818361394a565b81010312610a6e576142dd90613af1565b5f61411c565b503d6142c256fea2646970667358221220e8febda59a4e22dbf18649e714463476523023bdaffb25984515b1ed69c3b9f364736f6c63430008180033","linkReferences":{}},"methodIdentifiers":{"authorize_press(bytes32,bytes32,bytes,bytes32,bytes32,bytes32,uint32,bytes[])":"6dfbdbed","batch_update_card_heads(bytes32,bytes32,bytes32[],bytes[],bytes[],bytes32,bytes,uint64)":"59f0ea45","cancel_logic_upgrade(bytes32,bytes32,uint32,bytes[])":"35035e87","claim_open_offer(bytes32,uint64,uint64,bytes32,bytes,bytes32,bytes32,bytes32,bytes,uint64)":"5e5efda2","confirm_logic_upgrade(address,bytes32,bytes32,uint32,bytes[])":"37791b4b","deregister_sub_card(bytes32,bytes32,bytes32,bytes,uint64)":"a17f2451","pendingVerifierAddress()":"20332794","pendingVerifierAt()":"7fcd25a7","pendingVerifierGovVersion()":"9068a67b","pendingVerifierNonce()":"f85378c0","propose_logic_upgrade(address,bytes32,bytes32,uint32,bytes[])":"aa3bf9dd","register_address_forward(bytes32,bytes32,bytes32,bytes32,bytes)":"e79b1462","register_card(bytes32,bytes,bytes32,bytes32,bytes32,bytes,uint64)":"5eb2acd4","register_policy(bytes32,bytes,bytes32,bytes32,uint32,bytes[])":"c2b99315","register_sub_card(bytes32,bytes32,bytes,bytes,bytes32,bytes32,bytes,uint64)":"7fa05cc7","revoke_press(bytes32,bytes32,bytes32,bytes32,uint32,bytes[])":"8510d599","rotate_authorizer_key(bytes32,bytes,bytes32,bytes32,uint32,bytes[])":"7c18c6ac","rotate_governance_keys(uint8,bytes,uint8,uint8,bytes32,bytes32,uint32,bytes[])":"4df47717","storageContract()":"11ce0267","update_card_head(bytes32,bytes,bytes,bytes32,bytes32,bytes,uint64)":"9042e3d4","verifierModule()":"41506fc1"},"id":25}