{"abi":[{"type":"function","name":"card_entries_map","inputs":[{"name":"","type":"bytes32","internalType":"bytes32"}],"outputs":[{"name":"log_head_cid","type":"bytes","internalType":"bytes"},{"name":"policy_address","type":"bytes32","internalType":"bytes32"},{"name":"last_press_address","type":"bytes32","internalType":"bytes32"},{"name":"forward_to","type":"bytes32","internalType":"bytes32"},{"name":"exists","type":"bool","internalType":"bool"}],"stateMutability":"view"},{"type":"function","name":"card_exists","inputs":[{"name":"card_address","type":"bytes32","internalType":"bytes32"}],"outputs":[{"name":"","type":"bool","internalType":"bool"}],"stateMutability":"view"},{"type":"function","name":"clear_pending_logic_upgrade","inputs":[],"outputs":[],"stateMutability":"nonpayable"},{"type":"function","name":"clear_pending_verifier_upgrade","inputs":[],"outputs":[],"stateMutability":"nonpayable"},{"type":"function","name":"delete_policy_authorizer_key","inputs":[{"name":"policy_address","type":"bytes32","internalType":"bytes32"}],"outputs":[],"stateMutability":"nonpayable"},{"type":"function","name":"get_card_entry","inputs":[{"name":"card_address","type":"bytes32","internalType":"bytes32"}],"outputs":[{"name":"","type":"bytes","internalType":"bytes"},{"name":"","type":"bytes32","internalType":"bytes32"},{"name":"","type":"bytes32","internalType":"bytes32"},{"name":"","type":"bytes32","internalType":"bytes32"},{"name":"","type":"bool","internalType":"bool"}],"stateMutability":"view"},{"type":"function","name":"get_governance_keyset","inputs":[{"name":"body_id","type":"uint8","internalType":"uint8"}],"outputs":[{"name":"","type":"bytes","internalType":"bytes"},{"name":"","type":"uint8","internalType":"uint8"},{"name":"","type":"uint8","internalType":"uint8"},{"name":"","type":"uint32","internalType":"uint32"},{"name":"","type":"uint8","internalType":"uint8"}],"stateMutability":"view"},{"type":"function","name":"get_key_scheme_phase","inputs":[],"outputs":[{"name":"","type":"uint8","internalType":"uint8"}],"stateMutability":"view"},{"type":"function","name":"get_logic_contract","inputs":[],"outputs":[{"name":"","type":"address","internalType":"address"}],"stateMutability":"view"},{"type":"function","name":"get_next_sequence","inputs":[{"name":"policy_address","type":"bytes32","internalType":"bytes32"},{"name":"press_address","type":"bytes32","internalType":"bytes32"}],"outputs":[{"name":"","type":"uint64","internalType":"uint64"}],"stateMutability":"view"},{"type":"function","name":"get_open_offer_count","inputs":[{"name":"offer_id","type":"bytes32","internalType":"bytes32"}],"outputs":[{"name":"","type":"uint64","internalType":"uint64"}],"stateMutability":"view"},{"type":"function","name":"get_pending_logic_upgrade","inputs":[],"outputs":[{"name":"","type":"address","internalType":"address"},{"name":"","type":"uint64","internalType":"uint64"},{"name":"","type":"uint32","internalType":"uint32"},{"name":"","type":"bytes32","internalType":"bytes32"}],"stateMutability":"view"},{"type":"function","name":"get_pending_verifier_upgrade","inputs":[],"outputs":[{"name":"","type":"address","internalType":"address"},{"name":"","type":"uint64","internalType":"uint64"},{"name":"","type":"uint32","internalType":"uint32"},{"name":"","type":"bytes32","internalType":"bytes32"}],"stateMutability":"view"},{"type":"function","name":"get_policy_authorizer","inputs":[{"name":"policy_address","type":"bytes32","internalType":"bytes32"}],"outputs":[{"name":"","type":"bytes","internalType":"bytes"}],"stateMutability":"view"},{"type":"function","name":"get_press_authorization","inputs":[{"name":"policy_address","type":"bytes32","internalType":"bytes32"},{"name":"press_address","type":"bytes32","internalType":"bytes32"}],"outputs":[{"name":"","type":"bytes","internalType":"bytes"},{"name":"","type":"bytes32","internalType":"bytes32"},{"name":"","type":"uint8","internalType":"uint8"},{"name":"","type":"bool","internalType":"bool"},{"name":"","type":"uint64","internalType":"uint64"},{"name":"","type":"uint64","internalType":"uint64"},{"name":"","type":"uint64","internalType":"uint64"}],"stateMutability":"view"},{"type":"function","name":"get_sub_card_entry","inputs":[{"name":"sub_card_address","type":"bytes32","internalType":"bytes32"}],"outputs":[{"name":"","type":"bytes32","internalType":"bytes32"},{"name":"","type":"bytes","internalType":"bytes"},{"name":"","type":"bytes","internalType":"bytes"},{"name":"","type":"bool","internalType":"bool"},{"name":"","type":"uint64","internalType":"uint64"},{"name":"","type":"uint64","internalType":"uint64"}],"stateMutability":"view"},{"type":"function","name":"governance_keysets_map","inputs":[{"name":"","type":"uint8","internalType":"uint8"}],"outputs":[{"name":"keys_flat","type":"bytes","internalType":"bytes"},{"name":"key_count","type":"uint8","internalType":"uint8"},{"name":"quorum","type":"uint8","internalType":"uint8"},{"name":"version","type":"uint32","internalType":"uint32"},{"name":"key_scheme","type":"uint8","internalType":"uint8"}],"stateMutability":"view"},{"type":"function","name":"increment_press_sequence","inputs":[{"name":"policy_address","type":"bytes32","internalType":"bytes32"},{"name":"press_address","type":"bytes32","internalType":"bytes32"}],"outputs":[],"stateMutability":"nonpayable"},{"type":"function","name":"initialize","inputs":[{"name":"initial_logic_address","type":"address","internalType":"address"},{"name":"deployer_secp256r1_pubkey","type":"bytes","internalType":"bytes"}],"outputs":[],"stateMutability":"nonpayable"},{"type":"function","name":"is_nonce_used","inputs":[{"name":"nonce","type":"bytes32","internalType":"bytes32"}],"outputs":[{"name":"","type":"bool","internalType":"bool"}],"stateMutability":"view"},{"type":"function","name":"is_press_active","inputs":[{"name":"policy_address","type":"bytes32","internalType":"bytes32"},{"name":"press_address","type":"bytes32","internalType":"bytes32"}],"outputs":[{"name":"","type":"bool","internalType":"bool"}],"stateMutability":"view"},{"type":"function","name":"key_scheme_phase_val","inputs":[],"outputs":[{"name":"","type":"uint8","internalType":"uint8"}],"stateMutability":"view"},{"type":"function","name":"logic_contract_addr","inputs":[],"outputs":[{"name":"","type":"address","internalType":"address"}],"stateMutability":"view"},{"type":"function","name":"mark_nonce_used","inputs":[{"name":"nonce","type":"bytes32","internalType":"bytes32"}],"outputs":[],"stateMutability":"nonpayable"},{"type":"function","name":"open_offer_use_counts_map","inputs":[{"name":"","type":"bytes32","internalType":"bytes32"}],"outputs":[{"name":"","type":"uint64","internalType":"uint64"}],"stateMutability":"view"},{"type":"function","name":"pending_logic_upgrade_state","inputs":[],"outputs":[{"name":"proposed_address","type":"address","internalType":"address"},{"name":"proposed_at","type":"uint64","internalType":"uint64"},{"name":"governance_version","type":"uint32","internalType":"uint32"},{"name":"nonce","type":"bytes32","internalType":"bytes32"}],"stateMutability":"view"},{"type":"function","name":"pending_verifier_addr","inputs":[],"outputs":[{"name":"","type":"address","internalType":"address"}],"stateMutability":"view"},{"type":"function","name":"pending_verifier_at","inputs":[],"outputs":[{"name":"","type":"uint64","internalType":"uint64"}],"stateMutability":"view"},{"type":"function","name":"pending_verifier_gov_ver","inputs":[],"outputs":[{"name":"","type":"uint32","internalType":"uint32"}],"stateMutability":"view"},{"type":"function","name":"pending_verifier_nonce_val","inputs":[],"outputs":[{"name":"","type":"bytes32","internalType":"bytes32"}],"stateMutability":"view"},{"type":"function","name":"policy_authorizer_keys_map","inputs":[{"name":"","type":"bytes32","internalType":"bytes32"}],"outputs":[{"name":"","type":"bytes","internalType":"bytes"}],"stateMutability":"view"},{"type":"function","name":"policy_exists","inputs":[{"name":"policy_address","type":"bytes32","internalType":"bytes32"}],"outputs":[{"name":"","type":"bool","internalType":"bool"}],"stateMutability":"view"},{"type":"function","name":"press_authorizations_map","inputs":[{"name":"","type":"bytes32","internalType":"bytes32"},{"name":"","type":"bytes32","internalType":"bytes32"}],"outputs":[{"name":"press_public_key","type":"bytes","internalType":"bytes"},{"name":"mldsa44_key_hash","type":"bytes32","internalType":"bytes32"},{"name":"key_scheme","type":"uint8","internalType":"uint8"},{"name":"active","type":"bool","internalType":"bool"},{"name":"next_sequence","type":"uint64","internalType":"uint64"},{"name":"authorized_at","type":"uint64","internalType":"uint64"},{"name":"revoked_at","type":"uint64","internalType":"uint64"}],"stateMutability":"view"},{"type":"function","name":"set_card_entry","inputs":[{"name":"card_address","type":"bytes32","internalType":"bytes32"},{"name":"log_head_cid","type":"bytes","internalType":"bytes"},{"name":"policy_address","type":"bytes32","internalType":"bytes32"},{"name":"last_press_address","type":"bytes32","internalType":"bytes32"},{"name":"new_exists","type":"bool","internalType":"bool"}],"outputs":[],"stateMutability":"nonpayable"},{"type":"function","name":"set_forward_to","inputs":[{"name":"card_address","type":"bytes32","internalType":"bytes32"},{"name":"new_forward_to","type":"bytes32","internalType":"bytes32"}],"outputs":[],"stateMutability":"nonpayable"},{"type":"function","name":"set_governance_keyset","inputs":[{"name":"body_id","type":"uint8","internalType":"uint8"},{"name":"keys_flat","type":"bytes","internalType":"bytes"},{"name":"key_count","type":"uint8","internalType":"uint8"},{"name":"quorum","type":"uint8","internalType":"uint8"},{"name":"version","type":"uint32","internalType":"uint32"},{"name":"key_scheme","type":"uint8","internalType":"uint8"}],"outputs":[],"stateMutability":"nonpayable"},{"type":"function","name":"set_key_scheme_phase","inputs":[{"name":"phase","type":"uint8","internalType":"uint8"}],"outputs":[],"stateMutability":"nonpayable"},{"type":"function","name":"set_logic_contract","inputs":[{"name":"new_logic_address","type":"address","internalType":"address"}],"outputs":[],"stateMutability":"nonpayable"},{"type":"function","name":"set_open_offer_count","inputs":[{"name":"offer_id","type":"bytes32","internalType":"bytes32"},{"name":"count","type":"uint64","internalType":"uint64"}],"outputs":[],"stateMutability":"nonpayable"},{"type":"function","name":"set_pending_logic_upgrade","inputs":[{"name":"proposed_address","type":"address","internalType":"address"},{"name":"proposed_at","type":"uint64","internalType":"uint64"},{"name":"governance_version","type":"uint32","internalType":"uint32"},{"name":"nonce","type":"bytes32","internalType":"bytes32"}],"outputs":[],"stateMutability":"nonpayable"},{"type":"function","name":"set_pending_verifier_upgrade","inputs":[{"name":"proposed_address","type":"address","internalType":"address"},{"name":"proposed_at","type":"uint64","internalType":"uint64"},{"name":"governance_version","type":"uint32","internalType":"uint32"},{"name":"nonce","type":"bytes32","internalType":"bytes32"}],"outputs":[],"stateMutability":"nonpayable"},{"type":"function","name":"set_policy_authorizer_key","inputs":[{"name":"policy_address","type":"bytes32","internalType":"bytes32"},{"name":"authorizer_pubkey","type":"bytes","internalType":"bytes"}],"outputs":[],"stateMutability":"nonpayable"},{"type":"function","name":"set_press_auth_entry","inputs":[{"name":"policy_address","type":"bytes32","internalType":"bytes32"},{"name":"press_address","type":"bytes32","internalType":"bytes32"},{"name":"press_public_key","type":"bytes","internalType":"bytes"},{"name":"mldsa44_key_hash","type":"bytes32","internalType":"bytes32"},{"name":"key_scheme","type":"uint8","internalType":"uint8"},{"name":"active","type":"bool","internalType":"bool"},{"name":"next_sequence","type":"uint64","internalType":"uint64"},{"name":"authorized_at","type":"uint64","internalType":"uint64"},{"name":"revoked_at","type":"uint64","internalType":"uint64"}],"outputs":[],"stateMutability":"nonpayable"},{"type":"function","name":"set_sub_card_entry","inputs":[{"name":"sub_card_address","type":"bytes32","internalType":"bytes32"},{"name":"master_card_address","type":"bytes32","internalType":"bytes32"},{"name":"registration_log_head","type":"bytes","internalType":"bytes"},{"name":"sub_card_doc_cid","type":"bytes","internalType":"bytes"},{"name":"active","type":"bool","internalType":"bool"},{"name":"registered_at","type":"uint64","internalType":"uint64"},{"name":"deregistered_at","type":"uint64","internalType":"uint64"}],"outputs":[],"stateMutability":"nonpayable"},{"type":"function","name":"sub_card_registrations_map","inputs":[{"name":"","type":"bytes32","internalType":"bytes32"}],"outputs":[{"name":"master_card_address","type":"bytes32","internalType":"bytes32"},{"name":"registration_log_head","type":"bytes","internalType":"bytes"},{"name":"sub_card_doc_cid","type":"bytes","internalType":"bytes"},{"name":"active","type":"bool","internalType":"bool"},{"name":"registered_at","type":"uint64","internalType":"uint64"},{"name":"deregistered_at","type":"uint64","internalType":"uint64"}],"stateMutability":"view"},{"type":"function","name":"update_card_head","inputs":[{"name":"card_address","type":"bytes32","internalType":"bytes32"},{"name":"new_log_cid","type":"bytes","internalType":"bytes"},{"name":"last_press_address","type":"bytes32","internalType":"bytes32"}],"outputs":[],"stateMutability":"nonpayable"},{"type":"function","name":"used_nonces_map","inputs":[{"name":"","type":"bytes32","internalType":"bytes32"}],"outputs":[{"name":"","type":"bool","internalType":"bool"}],"stateMutability":"view"},{"type":"error","name":"CallerNotLogicContract","inputs":[]},{"type":"error","name":"CardAlreadyExists","inputs":[]},{"type":"error","name":"CidTooLong","inputs":[]},{"type":"error","name":"DeregisteredAtImmutable","inputs":[]},{"type":"error","name":"ForwardAlreadySet","inputs":[]},{"type":"error","name":"InvalidAddress","inputs":[]},{"type":"error","name":"InvalidKeyLength","inputs":[]},{"type":"error","name":"InvalidKeysFlat","inputs":[]},{"type":"error","name":"RevokedAtImmutable","inputs":[]}],"bytecode":{"object":"0x6080806040523461001657611e4d908161001b8239f35b5f80fdfe6080604081815260049182361015610015575f80fd5b60e05f35811c9182630602da7814611897575081630664fccb1461182a5781630d6982d8146117b85781631096abe01461179a5781632bc3894a1461172d57816339d19f68146114fe5781633d6896b51461149a57816341a6ae521461143e5781634d0823b414610c585781634fa5d0d6146113d65781635149d602146113a757816353c3b2631461135757816354dd6f101461067c57816356fa2e191461132f5781635b70f0ab146112dc57816376b48c6f146112775781637f6953491461123c57816381869bb0146111e9578163873dd09e146111935781638928fa3b146111695781639357916c1461112c5781639726a5101461027857816399a8cf54146110de57816399b1097214610ecb5781639d991cc714610e62578163a20d6bd814610c88578163a5a35c1214610e01578163a8463b4314610dcf578163a8b2e99e14610d4c578163ad13b54914610aba578163b134066114610ca9578163c1ad3f8e14610c88578163c7293a7114610c58578163c7742b2514610b06578163ca222b0c14610ae7578163cf3ef57d14610aba578163d1f578941461082a578163d4386a7414610654578163d63149f4146106f5578163d9886e9d146106b9578163da261b321461067c578163e80687d014610654578163ea6ad46e1461035b578163eee82a70146102f9578163f1f12d94146102cb578163f90af9c214610278575063f9828eab14610226575f80fd5b346102745760203660031901126102745781355f525f602052610270815f20600181015493600282015461026560ff6003850154938501541693611b07565b945195869586611d0b565b0390f35b5f80fd5b905034610274575f3660031901126102745760085460095492516001600160a01b038216815260a082901c6001600160401b03166020820152911c63ffffffff1660408201526060810191909152608090f35b5050346102745760203660031901126102745760ff82602093355f525f8452825f2001541690519015158152f35b82346102745760203660031901126102745760ff610315611cad565b165f526005602052805f2090610270610332600184015493611b07565b915192839260ff8260301c169163ffffffff8160101c169160ff808360081c1692169086611d3d565b8391503461027457366003190112610274578035916001600160401b0391604435838111610274576103909036908301611a2d565b9290606435858111610274576103a99036908501611a2d565b6103b4969196611a5a565b9660a435968388168803610274576103ca611c4c565b6007549097906001600160a01b03163303610646578a5f5260039660209b888d528689835f20015460481c1615158061063c575b61062e5781841161062057818611610620575f52878c525f209560243587556001928388019187821161060d578d906104418361043b8654611a7f565b86611d8f565b5f91601f84116001146105ad575061047092915f91836105a2575b50508160011b915f199060031b1c19161790565b90555b6002860194841161058f575061048d8361043b8654611a7f565b5f99601f841160011461052a57505090806104da969798996104c3935f9261051f5750508160011b915f199060031b1c19161790565b90555b0193849060ff801983541691151516179055565b68ffffffffffffffff0070ffffffffffffffff00000000000000000084549260481b169260081b169070ffffffffffffffffffffffffffffffff001916171790555f80f35b013590508a8061045c565b909291601f1983169a855f52825f20925f905b8d8210610578575050836104da999a9b9c10610561575b505050811b0190556104c6565b01355f1983881b60f8161c19169055898080610554565b80878496829495870135815501950192019061053d565b604190634e487b7160e01b5f525260245ffd5b013590508f8061045c565b90869392601f198416865f52835f20935f905b8282106105f457505084116105dd575b505050811b019055610473565b01355f19838d1b60f8161c191690558e80806105d0565b8385013586558a979095019492830192908101906105c0565b604184634e487b7160e01b5f525260245ffd5b50516304771b2360e21b8152fd5b5051636330abed60e01b8152fd5b50868a16156103fe565b8651635c6ceef360e01b8152fd5b8234610274575f3660031901126102745760075490516001600160a01b039091168152602090f35b5050346102745760203660031901126102745761027091355f5260016020526106a6815f20611b07565b9051918291602083526020830190611ba9565b505034610274575f366003190112610274576007546001600160a01b031633036106e8575f600a819055600b55005b51635c6ceef360e01b8152fd5b8284346102745781600319360112610274576001600160401b0390602435828111610274576107279036908301611a2d565b600754909291906001600160a01b0316330361081b5784830361080c5781355f5260019160209560016020525f2094841161058f575061076b8361043b8654611a7f565b5f91601f84116001146107ab575061079c9394509082915f926107a05750508160011b915f199060031b1c19161790565b9055005b01359050848061045c565b5f85815260208120601f198616979094925b8883106107f5575050508360019596106107dc575b505050811b019055005b01355f19600384901b60f8161c191690558380806107d2565b8484013586559485019492810192918101916107bd565b5083516314e1080360e21b8152fd5b508351635c6ceef360e01b8152fd5b505034610274578060031936011261027457610844611c36565b602492906001600160401b03908435828111610274576108679036908501611a2d565b60075490926001600160a01b0390818316610a81571690811561027457868403610a3e576001600160a01b031916176007555f5b600160ff8216818111610a32578751906108b482611ab7565b6108bf368787611dd2565b82526020808301938085528a84019381855260608101925f845260808201945f86525f52600581528c5f209151908151918c8311610a20576109058361043b8654611a7f565b81601f84116001146109a6575091806109379260ff9695945f9261099b5750508160011b915f199060031b1c19161790565b81555b0194511666ff00000000000065ffffffff000061ff008754965160081b16935160101b16935160301b169366ffffffffffffff191617171717905560ff8091169081146109895760010161089b565b86601186634e487b7160e01b5f52525ffd5b015190505f8061045c565b9190979e9d9c9b9a999897601f198416855f52835f20935f905b828210610a09575050919e9f98999a9b9c9d9e86959492918360ff989593106109f1575b505050811b01815561093a565b01515f1960f88460031b161c191690555f80806109e4565b8089869782949787015181550196019401906109c0565b8f60418f634e487b7160e01b5f52525ffd5b600c805460ff19169055005b865162461bcd60e51b8152602081880152601760248201527f5075626b6579206d7573742062652036342062797465730000000000000000006044820152606490fd5b875162461bcd60e51b81526020818901526013602482015272105b1c9958591e481a5b9a5d1a585b1a5e9959606a1b6044820152606490fd5b50503461027457602036600319011261027457602091355f526006825260ff815f20541690519015158152f35b8234610274575f36600319011261027457600a549051911c8152602090f35b5050346102745760603660031901126102745781356001600160401b0360243581811161027457610b3a9036908601611a2d565b6007549091906001600160a01b03163303610c4857848211610c3857835f526020955f602052855f2093831161058f5750610b7f82610b798554611a7f565b85611d8f565b5f95601f8311600114610bd25750610bb09293949582915f92610bc75750508160011b915f199060031b1c19161790565b90555b5f525f6020526002604435915f2001555f80f35b013590505f8061045c565b90601f19831696845f5260205f20925f905b898210610c205750508360019596979810610c07575b505050811b019055610bb3565b01355f19600384901b60f8161c191690555f8080610bfa565b80600184968294958701358155019501920190610be4565b84516304771b2360e21b81528690fd5b8451635c6ceef360e01b81528690fd5b5050346102745760203660031901126102745781602092355f5282526001600160401b03815f2054169051908152f35b8234610274575f3660031901126102745760209060ff600c54169051908152f35b50503461027457610cb936611a69565b6007549192916001600160a01b03163303610d3c576002925f5282602052815f20905f526020525f20016001600160401b039182825460101c16928314610d2957506001610d27920169ffffffffffffffff000082549160101b169069ffffffffffffffff00001916179055565b005b601190634e487b7160e01b5f525260245ffd5b8151635c6ceef360e01b81528490fd5b828434610274576020366003190112610274576007546001600160a01b03163303610dc157355f5260016020525f20610d858154611a7f565b9081610d8d57005b81601f5f9311600114610d9e575055005b908083918252610dbd601f60208420940160051c840160018501611d79565b5555005b9051635c6ceef360e01b8152fd5b50503461027457602036600319011261027457602091355f526001825280610df9815f2054611a7f565b149051908152f35b82346102745760203660031901126102745760ff610e1d611cad565b165f526005602052805f206102706001610e3683611b07565b920154925192839260ff8260301c169163ffffffff8160101c169160ff808360081c1692169086611d3d565b82843461027457602036600319011261027457610e7d611c36565b60075491906001600160a01b03908184163303610ebb5716928315610eae5750506001600160a01b03191617600755005b5163e6c4247b60e01b8152fd5b8451635c6ceef360e01b81528390fd5b5050346102745760c036600319011261027457610ee6611cad565b6001600160401b0360243581811161027457610f059036908601611a2d565b90916044359360ff851696878603610274576064359660ff8816809803610274576084359563ffffffff87168097036102745760a4359760ff8916809903610274576007546001600160a01b031633036110cf5760061b613fc0168a158b8204841417156110bc5786036110ae57610f8a90825196610f8388611ab7565b3691611dd2565b855260ff6020938487019a8b52828701998a526060870197885260808701988952165f52600583525f20935190815193841161058f5750610fcf8361043b8654611a7f565b81601f841160011461104457508260019360ff9593611002935f9261099b5750508160011b915f199060031b1c19161790565b81555b0194511666ff00000000000065ffffffff000061ff008754965160081b16935160101b16935160301b169366ffffffffffffff19161717171790555f80f35b9190601f198416855f52835f20935f905b82821061109657505092600194919285938360ff98961061107e575b505050811b018155611005565b01515f1960f88460031b161c191690555f8080611071565b80600186978294978701518155019601940190611055565b50516358eac8c760e11b8152fd5b601184634e487b7160e01b5f525260245ffd5b505051635c6ceef360e01b8152fd5b5050346102745760203660031901126102745781355f525f602052610270815f209161110983611b07565b9260018101549460ff600283015491600384015493015416925195869586611d0b565b828434610274576020366003190112610274576007546001600160a01b03163303610dc157355f908152600660205220805460ff19166001179055005b8234610274575f366003190112610274576020906001600160401b03600a5460a01c169051908152f35b505034610274578060031936011261027457602435916001600160401b038316809303610274576007546001600160a01b03163303610dc15780355f526020525f20906001600160401b03198254161790555f80f35b8234610274576020906111fb36611a69565b905f5260028352815f20905f528252805f2090806112198354611a7f565b14918261122a575b50519015158152f35b6002015460081c60ff16915083611221565b82346102745760209061124e36611a69565b905f5260028352815f20905f5282526001600160401b036002825f20015460101c169051908152f35b82843461027457602036600319011261027457355f526003602052805f20610270815460038301546001600160401b03916112c060026112b960018801611b07565b9601611b07565b955195869560ff858560481c16958560081c1694169287611cbd565b905034610274575f36600319011261027457600a54600b5492516001600160a01b038216815260a082901c6001600160401b03166020820152911c63ffffffff1660408201526060810191909152608090f35b8234610274575f36600319011261027457600a5490516001600160a01b039091168152602090f35b50503461027457602036600319011261027457611372611cad565b6007549091906001600160a01b0316330361139857600c805460ff191660ff8416179055005b51635c6ceef360e01b81529050fd5b505034610274575f366003190112610274576007546001600160a01b031633036106e8575f6008819055600955005b82843461027457602036600319011261027457355f526003602052805f209061027082549161140760018501611b07565b92600361141660028701611b07565b950154906001600160401b03925195869560ff858560481c16958560081c1694169287611cbd565b905082346102745761144f36611c62565b6007549096939592946001600160a01b03949091851633036106e857505060a09390931b67ffffffffffffffff60a01b169190931617911b6001600160e01b03191617600a55600b55005b505034610274576114aa36611a69565b6007549093906001600160a01b031633036114f057815f525f6020526003835f2001546114e257505f90815260208190522060030155005b8251630ed50b8960e41b8152fd5b8251635c6ceef360e01b8152fd5b5050346102745761012036600319011261027457813591602435906001600160401b03604435818111610274576115389036908401611a2d565b6084929192359660ff88168098036102745760a4359384151580950361027457611560611c4c565b9560e43598858a168a03610274576101043598868a1694858b03610274576007546001600160a01b031633036110cf57805f5260209560028752835f20835f528752886002855f20015460901c1615159081611724575b50611715575f5260028552815f20905f5284525f2094841161058f57506115e28361043b8654611a7f565b5f91601f84116001146116a857508260029361166197969593611619935f92610bc75750508160011b915f199060031b1c19161790565b81555b6064356001820155019561ff0087549260081b169161ffff191617178555849069ffffffffffffffff000082549160101b169069ffffffffffffffff00001916179055565b82546fffffffffffffffffffffffffffffffff60501b191660509290921b67ffffffffffffffff60501b169190911760909190911b67ffffffffffffffff60901b16179055005b91601f198416855f52835f20935f905b8282106116fd5750509260019285926002966116619a999896106116e4575b505050811b01815561161c565b01355f19600384901b60f8161c191690555f80806116d7565b806001859782949688013581550196019301906116b8565b505051633b80610160e11b8152fd5b9050155f6115b7565b82346102745761173c36611a69565b905f526002602052815f20905f52602052805f206102706001820154926002830154926117706001600160401b0391611b07565b9151948482879660901c1693838260501c16938260101c169260ff808460081c1693169188611be7565b8234610274575f36600319011261027457602090600b549051908152f35b90508234610274576117c936611c62565b6007549096939592946001600160a01b03949091851633036106e857516001600160401b036080820191821091111761058f575060a09390931b67ffffffffffffffff60a01b169190931617911b6001600160e01b03191617600855600955005b82346102745761183936611a69565b905f526002602052815f20905f52602052805f209061027061185a83611b07565b60026001850154940154926001600160401b039051948482879660901c1693838260501c16938260101c169260ff808460081c1693169188611be7565b839085346102745760a0366003190112610274576001600160401b038135602435828111610274576118cc9036908501611a2d565b956118d5611a5a565b6007549096906001600160a01b03163303611a1f5750825f526020925f60205260ff86835f2001541680611a17575b611a07578188116119f7575f525f6020525f2092861161060d5761192c86610b798554611a7f565b5f91601f871160011461198e5750948061195e92610d27975f926119835750508160011b915f199060031b1c19161790565b81555b60443560018201556064356002820155019060ff801983541691151516179055565b01359050878061045c565b91601f198716845f5260205f20935f905b8282106119df575050916001939188610d279994106119c6575b505050811b018155611961565b01355f19600384901b60f8161c191690558680806119b9565b8060018597829496880135815501960193019061199f565b81516304771b2360e21b81528690fd5b8151638db034d360e01b81528690fd5b508615611904565b635c6ceef360e01b81528590fd5b9181601f84011215610274578235916001600160401b038311610274576020838186019501011161027457565b60843590811515820361027457565b6040906003190112610274576004359060243590565b90600182811c92168015611aad575b6020831014611a9957565b634e487b7160e01b5f52602260045260245ffd5b91607f1691611a8e565b60a081019081106001600160401b03821117611ad257604052565b634e487b7160e01b5f52604160045260245ffd5b90601f801991011681019081106001600160401b03821117611ad257604052565b9060405191825f8254611b1981611a7f565b908184526020946001916001811690815f14611b875750600114611b49575b505050611b4792500383611ae6565b565b5f90815285812095935091905b818310611b6f575050611b4793508201015f8080611b38565b85548884018501529485019487945091830191611b56565b92505050611b4794925060ff191682840152151560051b8201015f8080611b38565b91908251928382525f5b848110611bd3575050825f602080949584010152601f8019910116010190565b602081830181015184830182015201611bb3565b95939060c09592989793611c0560ff9260e08a5260e08a0190611ba9565b996020890152166040870152151560608601526001600160401b03928380921660808701521660a085015216910152565b600435906001600160a01b038216820361027457565b60c435906001600160401b038216820361027457565b6080906003190112610274576004356001600160a01b038116810361027457906024356001600160401b0381168103610274579060443563ffffffff81168103610274579060643590565b6004359060ff8216820361027457565b9492611cdf60a095989793611ced93885260c0602089015260c0880190611ba9565b908682036040880152611ba9565b95151560608501526001600160401b03809216608085015216910152565b939092611d266080949796939760a0875260a0870190611ba9565b966020860152604085015260608401521515910152565b9363ffffffff9060ff60809581611d6081979b9a9660a08b5260a08b0190611ba9565b9a16602089015216604087015216606085015216910152565b818110611d84575050565b5f8155600101611d79565b9190601f8111611d9e57505050565b611b47925f5260205f20906020601f840160051c83019310611dc8575b601f0160051c0190611d79565b9091508190611dbb565b9291926001600160401b038211611ad25760405191611dfb601f8201601f191660200184611ae6565b829481845281830111610274578281602093845f96013701015256fea2646970667358221220c1cb0069fb62c366d8c559b3d12cd6fb1519b1bc34052e4a7b7d86dbaf87fb4a64736f6c63430008180033","linkReferences":{}},"methodIdentifiers":{"card_entries_map(bytes32)":"99a8cf54","card_exists(bytes32)":"f1f12d94","clear_pending_logic_upgrade()":"5149d602","clear_pending_verifier_upgrade()":"d9886e9d","delete_policy_authorizer_key(bytes32)":"a8b2e99e","get_card_entry(bytes32)":"f9828eab","get_governance_keyset(uint8)":"eee82a70","get_key_scheme_phase()":"c1ad3f8e","get_logic_contract()":"e80687d0","get_next_sequence(bytes32,bytes32)":"7f695349","get_open_offer_count(bytes32)":"c7293a71","get_pending_logic_upgrade()":"f90af9c2","get_pending_verifier_upgrade()":"5b70f0ab","get_policy_authorizer(bytes32)":"54dd6f10","get_press_authorization(bytes32,bytes32)":"2bc3894a","get_sub_card_entry(bytes32)":"76b48c6f","governance_keysets_map(uint8)":"a5a35c12","increment_press_sequence(bytes32,bytes32)":"b1340661","initialize(address,bytes)":"d1f57894","is_nonce_used(bytes32)":"ad13b549","is_press_active(bytes32,bytes32)":"81869bb0","key_scheme_phase_val()":"a20d6bd8","logic_contract_addr()":"d4386a74","mark_nonce_used(bytes32)":"9357916c","open_offer_use_counts_map(bytes32)":"4d0823b4","pending_logic_upgrade_state()":"9726a510","pending_verifier_addr()":"56fa2e19","pending_verifier_at()":"8928fa3b","pending_verifier_gov_ver()":"ca222b0c","pending_verifier_nonce_val()":"1096abe0","policy_authorizer_keys_map(bytes32)":"da261b32","policy_exists(bytes32)":"a8463b43","press_authorizations_map(bytes32,bytes32)":"0664fccb","set_card_entry(bytes32,bytes,bytes32,bytes32,bool)":"0602da78","set_forward_to(bytes32,bytes32)":"3d6896b5","set_governance_keyset(uint8,bytes,uint8,uint8,uint32,uint8)":"99b10972","set_key_scheme_phase(uint8)":"53c3b263","set_logic_contract(address)":"9d991cc7","set_open_offer_count(bytes32,uint64)":"873dd09e","set_pending_logic_upgrade(address,uint64,uint32,bytes32)":"0d6982d8","set_pending_verifier_upgrade(address,uint64,uint32,bytes32)":"41a6ae52","set_policy_authorizer_key(bytes32,bytes)":"d63149f4","set_press_auth_entry(bytes32,bytes32,bytes,bytes32,uint8,bool,uint64,uint64,uint64)":"39d19f68","set_sub_card_entry(bytes32,bytes32,bytes,bytes,bool,uint64,uint64)":"ea6ad46e","sub_card_registrations_map(bytes32)":"4fa5d0d6","update_card_head(bytes32,bytes,bytes32)":"c7742b25","used_nonces_map(bytes32)":"cf3ef57d"},"id":27}